{
  "_format": "hh-sol-artifact-1",
  "contractName": "TodoList",
  "sourceName": "contracts/TodoList.sol",
  "abi": [
    {
      "anonymous": false,
      "inputs": [
        {
          "indexed": false,
          "internalType": "uint256",
          "name": "id",
          "type": "uint256"
        }
      ],
      "name": "RemovedTodo",
      "type": "event"
    },
    {
      "anonymous": false,
      "inputs": [
        {
          "indexed": false,
          "internalType": "uint256",
          "name": "id",
          "type": "uint256"
        },
        {
          "indexed": false,
          "internalType": "string",
          "name": "text",
          "type": "string"
        },
        {
          "indexed": false,
          "internalType": "bool",
          "name": "done",
          "type": "bool"
        }
      ],
      "name": "TodoCreated",
      "type": "event"
    },
    {
      "anonymous": false,
      "inputs": [
        {
          "indexed": false,
          "internalType": "uint256",
          "name": "id",
          "type": "uint256"
        },
        {
          "indexed": false,
          "internalType": "bool",
          "name": "done",
          "type": "bool"
        }
      ],
      "name": "ToggleTodo",
      "type": "event"
    },
    {
      "inputs": [
        {
          "internalType": "string",
          "name": "_content",
          "type": "string"
        }
      ],
      "name": "addTodo",
      "outputs": [],
      "stateMutability": "nonpayable",
      "type": "function"
    },
    {
      "inputs": [
        {
          "internalType": "uint256",
          "name": "_id",
          "type": "uint256"
        }
      ],
      "name": "removeTodo",
      "outputs": [],
      "stateMutability": "nonpayable",
      "type": "function"
    },
    {
      "inputs": [],
      "name": "todoCount",
      "outputs": [
        {
          "internalType": "uint256",
          "name": "",
          "type": "uint256"
        }
      ],
      "stateMutability": "view",
      "type": "function"
    },
    {
      "inputs": [
        {
          "internalType": "uint256",
          "name": "",
          "type": "uint256"
        }
      ],
      "name": "todos",
      "outputs": [
        {
          "internalType": "uint256",
          "name": "id",
          "type": "uint256"
        },
        {
          "internalType": "string",
          "name": "task",
          "type": "string"
        },
        {
          "internalType": "bool",
          "name": "done",
          "type": "bool"
        }
      ],
      "stateMutability": "view",
      "type": "function"
    },
    {
      "inputs": [
        {
          "internalType": "uint256",
          "name": "_id",
          "type": "uint256"
        }
      ],
      "name": "toggleTodo",
      "outputs": [],
      "stateMutability": "nonpayable",
      "type": "function"
    }
  ],
  "bytecode": "0x60806040526000805534801561001457600080fd5b50610baf806100246000396000f3fe608060405234801561001057600080fd5b50600436106100575760003560e01c80633be3d7031461005c57806395ffebf514610078578063bc8bc2b414610094578063dc00282c146100c6578063fe0dee17146100e2575b600080fd5b6100766004803603810190610071919061053d565b610100565b005b610092600480360381019061008d91906106b0565b61017c565b005b6100ae60048036038101906100a9919061053d565b61024b565b6040516100bd939291906107a2565b60405180910390f35b6100e060048036038101906100db919061053d565b61030a565b005b6100ea610490565b6040516100f791906107e0565b60405180910390f35b6001600082815260200190815260200160002060008082016000905560018201600061012c9190610496565b6002820160006101000a81549060ff021916905550507f7adff8fc364e33565b2f45688f2c04f14a96a4fac766a2c7d9b9a90b5e947d718160405161017191906107e0565b60405180910390a150565b60008081548092919061018e9061082a565b9190505550604051806060016040528060005481526020018281526020016000151581525060016000805481526020019081526020016000206000820151816000015560208201518160010190816101e69190610a7e565b5060408201518160020160006101000a81548160ff0219169083151502179055509050507f216b7b554cc6be0fbaed756f9b62e83e41a91839dc1556b845c14d0f67036646600054826000604051610240939291906107a2565b60405180910390a150565b6001602052806000526040600020600091509050806000015490806001018054610274906108a1565b80601f01602080910402602001604051908101604052809291908181526020018280546102a0906108a1565b80156102ed5780601f106102c2576101008083540402835291602001916102ed565b820191906000526020600020905b8154815290600101906020018083116102d057829003601f168201915b5050505050908060020160009054906101000a900460ff16905083565b60006001600083815260200190815260200160002060405180606001604052908160008201548152602001600182018054610344906108a1565b80601f0160208091040260200160405190810160405280929190818152602001828054610370906108a1565b80156103bd5780601f10610392576101008083540402835291602001916103bd565b820191906000526020600020905b8154815290600101906020018083116103a057829003601f168201915b505050505081526020016002820160009054906101000a900460ff1615151515815250509050806040015115816040019015159081151581525050806001600084815260200190815260200160002060008201518160000155602082015181600101908161042b9190610a7e565b5060408201518160020160006101000a81548160ff0219169083151502179055509050507f04b687db4301294251458feddfaea8b5012b1923469412e50508c75d2d83a4a8828260400151604051610484929190610b50565b60405180910390a15050565b60005481565b5080546104a2906108a1565b6000825580601f106104b457506104d3565b601f0160209004906000526020600020908101906104d291906104d6565b5b50565b5b808211156104ef5760008160009055506001016104d7565b5090565b6000604051905090565b600080fd5b600080fd5b6000819050919050565b61051a81610507565b811461052557600080fd5b50565b60008135905061053781610511565b92915050565b600060208284031215610553576105526104fd565b5b600061056184828501610528565b91505092915050565b600080fd5b600080fd5b6000601f19601f8301169050919050565b7f4e487b7100000000000000000000000000000000000000000000000000000000600052604160045260246000fd5b6105bd82610574565b810181811067ffffffffffffffff821117156105dc576105db610585565b5b80604052505050565b60006105ef6104f3565b90506105fb82826105b4565b919050565b600067ffffffffffffffff82111561061b5761061a610585565b5b61062482610574565b9050602081019050919050565b82818337600083830152505050565b600061065361064e84610600565b6105e5565b90508281526020810184848401111561066f5761066e61056f565b5b61067a848285610631565b509392505050565b600082601f8301126106975761069661056a565b5b81356106a7848260208601610640565b91505092915050565b6000602082840312156106c6576106c56104fd565b5b600082013567ffffffffffffffff8111156106e4576106e3610502565b5b6106f084828501610682565b91505092915050565b61070281610507565b82525050565b600081519050919050565b600082825260208201905092915050565b60005b83811015610742578082015181840152602081019050610727565b60008484015250505050565b600061075982610708565b6107638185610713565b9350610773818560208601610724565b61077c81610574565b840191505092915050565b60008115159050919050565b61079c81610787565b82525050565b60006060820190506107b760008301866106f9565b81810360208301526107c9818561074e565b90506107d86040830184610793565b949350505050565b60006020820190506107f560008301846106f9565b92915050565b7f4e487b7100000000000000000000000000000000000000000000000000000000600052601160045260246000fd5b600061083582610507565b91507fffffffffffffffffffffffffffffffffffffffffffffffffffffffffffffffff8203610867576108666107fb565b5b600182019050919050565b7f4e487b7100000000000000000000000000000000000000000000000000000000600052602260045260246000fd5b600060028204905060018216806108b957607f821691505b6020821081036108cc576108cb610872565b5b50919050565b60008190508160005260206000209050919050565b60006020601f8301049050919050565b600082821b905092915050565b6000600883026109347fffffffffffffffffffffffffffffffffffffffffffffffffffffffffffffffff826108f7565b61093e86836108f7565b95508019841693508086168417925050509392505050565b6000819050919050565b600061097b61097661097184610507565b610956565b610507565b9050919050565b6000819050919050565b61099583610960565b6109a96109a182610982565b848454610904565b825550505050565b600090565b6109be6109b1565b6109c981848461098c565b505050565b5b818110156109ed576109e26000826109b6565b6001810190506109cf565b5050565b601f821115610a3257610a03816108d2565b610a0c846108e7565b81016020851015610a1b578190505b610a2f610a27856108e7565b8301826109ce565b50505b505050565b600082821c905092915050565b6000610a5560001984600802610a37565b1980831691505092915050565b6000610a6e8383610a44565b9150826002028217905092915050565b610a8782610708565b67ffffffffffffffff811115610aa057610a9f610585565b5b610aaa82546108a1565b610ab58282856109f1565b600060209050601f831160018114610ae85760008415610ad6578287015190505b610ae08582610a62565b865550610b48565b601f198416610af6866108d2565b60005b82811015610b1e57848901518255600182019150602085019450602081019050610af9565b86831015610b3b5784890151610b37601f891682610a44565b8355505b6001600288020188555050505b505050505050565b6000604082019050610b6560008301856106f9565b610b726020830184610793565b939250505056fea264697066735822122012d66b545ecc34853f8dab4fd73647f9ae49bbcadbd943f90741744a36125ce664736f6c63430008180033",
  "linkReferences": {},
  "deployedLinkReferences": {}
}