{
  "_format": "hh-sol-artifact-1",
  "contractName": "TodoList",
  "sourceName": "contracts/TodoList.sol",
  "abi": [
    {
      "inputs": [],
      "stateMutability": "nonpayable",
      "type": "constructor"
    },
    {
      "anonymous": false,
      "inputs": [
        {
          "indexed": false,
          "internalType": "uint256",
          "name": "id",
          "type": "uint256"
        }
      ],
      "name": "RemovedTodo",
      "type": "event"
    },
    {
      "anonymous": false,
      "inputs": [
        {
          "indexed": false,
          "internalType": "uint256",
          "name": "id",
          "type": "uint256"
        },
        {
          "indexed": false,
          "internalType": "string",
          "name": "text",
          "type": "string"
        },
        {
          "indexed": false,
          "internalType": "bool",
          "name": "completed",
          "type": "bool"
        }
      ],
      "name": "TodoCreated",
      "type": "event"
    },
    {
      "anonymous": false,
      "inputs": [
        {
          "indexed": false,
          "internalType": "uint256",
          "name": "id",
          "type": "uint256"
        },
        {
          "indexed": false,
          "internalType": "bool",
          "name": "completed",
          "type": "bool"
        }
      ],
      "name": "ToggleTodo",
      "type": "event"
    },
    {
      "inputs": [
        {
          "internalType": "string",
          "name": "_content",
          "type": "string"
        }
      ],
      "name": "createTodo",
      "outputs": [],
      "stateMutability": "nonpayable",
      "type": "function"
    },
    {
      "inputs": [
        {
          "internalType": "uint256",
          "name": "_id",
          "type": "uint256"
        }
      ],
      "name": "removeTodo",
      "outputs": [],
      "stateMutability": "nonpayable",
      "type": "function"
    },
    {
      "inputs": [],
      "name": "todoCount",
      "outputs": [
        {
          "internalType": "uint256",
          "name": "",
          "type": "uint256"
        }
      ],
      "stateMutability": "view",
      "type": "function"
    },
    {
      "inputs": [
        {
          "internalType": "uint256",
          "name": "",
          "type": "uint256"
        }
      ],
      "name": "todos",
      "outputs": [
        {
          "internalType": "uint256",
          "name": "id",
          "type": "uint256"
        },
        {
          "internalType": "string",
          "name": "text",
          "type": "string"
        },
        {
          "internalType": "bool",
          "name": "completed",
          "type": "bool"
        }
      ],
      "stateMutability": "view",
      "type": "function"
    },
    {
      "inputs": [
        {
          "internalType": "uint256",
          "name": "_id",
          "type": "uint256"
        }
      ],
      "name": "toggleTodo",
      "outputs": [],
      "stateMutability": "nonpayable",
      "type": "function"
    }
  ],
  "bytecode": "0x6080604052600080553480156200001557600080fd5b506200005c6040518060400160405280600b81526020017f48656c6c6f20776f726c640000000000000000000000000000000000000000008152506200006260201b60201c565b62000615565b600080815480929190620000769062000170565b919050555060405180606001604052806000548152602001828152602001600015158152506001600080548152602001908152602001600020600082015181600001556020820151816001019081620000d091906200042d565b5060408201518160020160006101000a81548160ff0219169083151502179055509050507f216b7b554cc6be0fbaed756f9b62e83e41a91839dc1556b845c14d0f670366466000548260006040516200012c93929190620005d1565b60405180910390a150565b7f4e487b7100000000000000000000000000000000000000000000000000000000600052601160045260246000fd5b6000819050919050565b60006200017d8262000166565b91507fffffffffffffffffffffffffffffffffffffffffffffffffffffffffffffffff8203620001b257620001b162000137565b5b600182019050919050565b600081519050919050565b7f4e487b7100000000000000000000000000000000000000000000000000000000600052604160045260246000fd5b7f4e487b7100000000000000000000000000000000000000000000000000000000600052602260045260246000fd5b600060028204905060018216806200023f57607f821691505b602082108103620002555762000254620001f7565b5b50919050565b60008190508160005260206000209050919050565b60006020601f8301049050919050565b600082821b905092915050565b600060088302620002bf7fffffffffffffffffffffffffffffffffffffffffffffffffffffffffffffffff8262000280565b620002cb868362000280565b95508019841693508086168417925050509392505050565b6000819050919050565b60006200030e62000308620003028462000166565b620002e3565b62000166565b9050919050565b6000819050919050565b6200032a83620002ed565b62000342620003398262000315565b8484546200028d565b825550505050565b600090565b620003596200034a565b620003668184846200031f565b505050565b5b818110156200038e57620003826000826200034f565b6001810190506200036c565b5050565b601f821115620003dd57620003a7816200025b565b620003b28462000270565b81016020851015620003c2578190505b620003da620003d18562000270565b8301826200036b565b50505b505050565b600082821c905092915050565b60006200040260001984600802620003e2565b1980831691505092915050565b60006200041d8383620003ef565b9150826002028217905092915050565b6200043882620001bd565b67ffffffffffffffff811115620004545762000453620001c8565b5b62000460825462000226565b6200046d82828562000392565b600060209050601f831160018114620004a5576000841562000490578287015190505b6200049c85826200040f565b8655506200050c565b601f198416620004b5866200025b565b60005b82811015620004df57848901518255600182019150602085019450602081019050620004b8565b86831015620004ff5784890151620004fb601f891682620003ef565b8355505b6001600288020188555050505b505050505050565b6200051f8162000166565b82525050565b600082825260208201905092915050565b60005b838110156200055657808201518184015260208101905062000539565b60008484015250505050565b6000601f19601f8301169050919050565b60006200058082620001bd565b6200058c818562000525565b93506200059e81856020860162000536565b620005a98162000562565b840191505092915050565b60008115159050919050565b620005cb81620005b4565b82525050565b6000606082019050620005e8600083018662000514565b8181036020830152620005fc818562000573565b90506200060d6040830184620005c0565b949350505050565b610baf80620006256000396000f3fe608060405234801561001057600080fd5b50600436106100575760003560e01c80633be3d7031461005c578063bc8bc2b414610078578063dc00282c146100aa578063e34f1221146100c6578063fe0dee17146100e2575b600080fd5b6100766004803603810190610071919061053d565b610100565b005b610092600480360381019061008d919061053d565b61017c565b6040516100a193929190610624565b60405180910390f35b6100c460048036038101906100bf919061053d565b61023b565b005b6100e060048036038101906100db9190610797565b6103c1565b005b6100ea610490565b6040516100f791906107e0565b60405180910390f35b6001600082815260200190815260200160002060008082016000905560018201600061012c9190610496565b6002820160006101000a81549060ff021916905550507f7adff8fc364e33565b2f45688f2c04f14a96a4fac766a2c7d9b9a90b5e947d718160405161017191906107e0565b60405180910390a150565b60016020528060005260406000206000915090508060000154908060010180546101a59061082a565b80601f01602080910402602001604051908101604052809291908181526020018280546101d19061082a565b801561021e5780601f106101f35761010080835404028352916020019161021e565b820191906000526020600020905b81548152906001019060200180831161020157829003601f168201915b5050505050908060020160009054906101000a900460ff16905083565b600060016000838152602001908152602001600020604051806060016040529081600082015481526020016001820180546102759061082a565b80601f01602080910402602001604051908101604052809291908181526020018280546102a19061082a565b80156102ee5780601f106102c3576101008083540402835291602001916102ee565b820191906000526020600020905b8154815290600101906020018083116102d157829003601f168201915b505050505081526020016002820160009054906101000a900460ff1615151515815250509050806040015115816040019015159081151581525050806001600084815260200190815260200160002060008201518160000155602082015181600101908161035c9190610a07565b5060408201518160020160006101000a81548160ff0219169083151502179055509050507f04b687db4301294251458feddfaea8b5012b1923469412e50508c75d2d83a4a88282604001516040516103b5929190610ad9565b60405180910390a15050565b6000808154809291906103d390610b31565b91905055506040518060600160405280600054815260200182815260200160001515815250600160008054815260200190815260200160002060008201518160000155602082015181600101908161042b9190610a07565b5060408201518160020160006101000a81548160ff0219169083151502179055509050507f216b7b554cc6be0fbaed756f9b62e83e41a91839dc1556b845c14d0f6703664660005482600060405161048593929190610624565b60405180910390a150565b60005481565b5080546104a29061082a565b6000825580601f106104b457506104d3565b601f0160209004906000526020600020908101906104d291906104d6565b5b50565b5b808211156104ef5760008160009055506001016104d7565b5090565b6000604051905090565b600080fd5b600080fd5b6000819050919050565b61051a81610507565b811461052557600080fd5b50565b60008135905061053781610511565b92915050565b600060208284031215610553576105526104fd565b5b600061056184828501610528565b91505092915050565b61057381610507565b82525050565b600081519050919050565b600082825260208201905092915050565b60005b838110156105b3578082015181840152602081019050610598565b60008484015250505050565b6000601f19601f8301169050919050565b60006105db82610579565b6105e58185610584565b93506105f5818560208601610595565b6105fe816105bf565b840191505092915050565b60008115159050919050565b61061e81610609565b82525050565b6000606082019050610639600083018661056a565b818103602083015261064b81856105d0565b905061065a6040830184610615565b949350505050565b600080fd5b600080fd5b7f4e487b7100000000000000000000000000000000000000000000000000000000600052604160045260246000fd5b6106a4826105bf565b810181811067ffffffffffffffff821117156106c3576106c261066c565b5b80604052505050565b60006106d66104f3565b90506106e2828261069b565b919050565b600067ffffffffffffffff8211156107025761070161066c565b5b61070b826105bf565b9050602081019050919050565b82818337600083830152505050565b600061073a610735846106e7565b6106cc565b90508281526020810184848401111561075657610755610667565b5b610761848285610718565b509392505050565b600082601f83011261077e5761077d610662565b5b813561078e848260208601610727565b91505092915050565b6000602082840312156107ad576107ac6104fd565b5b600082013567ffffffffffffffff8111156107cb576107ca610502565b5b6107d784828501610769565b91505092915050565b60006020820190506107f5600083018461056a565b92915050565b7f4e487b7100000000000000000000000000000000000000000000000000000000600052602260045260246000fd5b6000600282049050600182168061084257607f821691505b602082108103610855576108546107fb565b5b50919050565b60008190508160005260206000209050919050565b60006020601f8301049050919050565b600082821b905092915050565b6000600883026108bd7fffffffffffffffffffffffffffffffffffffffffffffffffffffffffffffffff82610880565b6108c78683610880565b95508019841693508086168417925050509392505050565b6000819050919050565b60006109046108ff6108fa84610507565b6108df565b610507565b9050919050565b6000819050919050565b61091e836108e9565b61093261092a8261090b565b84845461088d565b825550505050565b600090565b61094761093a565b610952818484610915565b505050565b5b818110156109765761096b60008261093f565b600181019050610958565b5050565b601f8211156109bb5761098c8161085b565b61099584610870565b810160208510156109a4578190505b6109b86109b085610870565b830182610957565b50505b505050565b600082821c905092915050565b60006109de600019846008026109c0565b1980831691505092915050565b60006109f783836109cd565b9150826002028217905092915050565b610a1082610579565b67ffffffffffffffff811115610a2957610a2861066c565b5b610a33825461082a565b610a3e82828561097a565b600060209050601f831160018114610a715760008415610a5f578287015190505b610a6985826109eb565b865550610ad1565b601f198416610a7f8661085b565b60005b82811015610aa757848901518255600182019150602085019450602081019050610a82565b86831015610ac45784890151610ac0601f8916826109cd565b8355505b6001600288020188555050505b505050505050565b6000604082019050610aee600083018561056a565b610afb6020830184610615565b9392505050565b7f4e487b7100000000000000000000000000000000000000000000000000000000600052601160045260246000fd5b6000610b3c82610507565b91507fffffffffffffffffffffffffffffffffffffffffffffffffffffffffffffffff8203610b6e57610b6d610b02565b5b60018201905091905056fea2646970667358221220a44329ca0d44f5d4f296ebf778844be26d43c395c7d2096ac17a2f49905ab2b664736f6c63430008180033",
  "linkReferences": {},
  "deployedLinkReferences": {}
}